:020000040800F2
:10000000980400209D010008BF130008B7110008E4
:10001000BD130008D5020008A9190008000000005F
:10002000000000000000000000000000C3130008F2
:10003000D702000800000000C1130008C513000823
:10004000B7010008B7010008B7010008B7010008B0
:10005000B7010008B7010008B7010008B7010008A0
:10006000B7010008B7010008B7010008B701000890
:10007000B7010008B7010008B7010008B701000880
:10008000B7010008B7010008B7010008B701000870
:10009000B7010008B7010008B7010008B701000860
:1000A000B7010008B7010008B7010008B701000850
:1000B000B7010008B7010008B7010008B701000840
:1000C000B7010008B7010008B7010008B701000830
:1000D000B7010008B70100089D190008B701000822
:1000E000B7010008B7010008B7010008B701000810
:1000F000B7010008B7010008B7010008B701000800
:10010000B7010008B7010008B7010008B7010008EF
:10011000B7010008B7010008B7010008B7010008DF
:10012000B7010008B7010008B7010008B7010008CF
:10013000B7010008B7010008B7010008B7010008BF
:10014000B7010008B7010008B7010008B7010008AF
:10015000B7010008B7010008B7010008B70100089F
:10016000B7010008B7010008B7010008B70100088F
:10017000B7010008B7010008B7010008000000003F
:10018000B7010008B7010008DFF80CD000F090F8C4
:1001900000480047E91900089804002006488047F5
:1001A00006480047FEE7FEE7FEE7FEE7FEE7FEE75C
:1001B000FEE7FEE7FEE7FEE761140008890100089C
:1001C0002DE9F05F0546002092469B46884606468C
:1001D000814640241BE0284641464746224600F01F
:1001E00056F853465A46C01A914110D31146184644
:1001F000224600F03DF82D1A67EB01084F462246D3
:100200000120002100F034F817EB00094E41201EB8
:10021000A4F10104DFDC484631462A464346BDE8E6
:10022000F09FD2B201E000F8012B491EFBD27047CB
:100230000022F6E710B513460A4604461946FFF7B2
:10024000F0FF204610BD421C10F8011B0029FBD115
:10025000801A704710B5002200E0521C835C8C5C51
:10026000A34201D1002BF8D1D8B2E1B2401A10BD9F
:10027000202A04DB203A00FA02F100207047914066
:10028000C2F1200320FA03F3194390407047202A5B
:1002900004DB203A21FA02F00021704721FA02F330
:1002A000D040C2F120029140084319467047000037
:1002B000064C074D06E0E06840F0010394E80700B3
:1002C00098471034AC42F6D3FFF762FFD41B000806
:1002D000F41B0008FEE7704772B6FEE790F8351091
:1002E000022903D08021416501207047052180F853
:1002F00035100068016821F001010160002070479D
:1003000070B5044600F0F0F80546601C02D00448C1
:100310000078044400F0E8F8401BA042FAD370BD16
:10032000080000202DE9F84F00224FF001080325B6
:100330004FF00F0E0B6808FA02F42340A3426ED16F
:100340004E68012E05D0022E03D0112E01D0122EA0
:1003500012D186684FEA420C05FA0CF7BE43CF680B
:1003600007FA0CF7374387604668A6430C79C4F355
:100370000014944034434460C668570005FA07FCF3
:100380008C6826EA0C06BC403443C4604C68022CDE
:1003900001D0122C13D1D40800EB8404A346D4F866
:1003A000209054074FEAD46A0EFA0AF629EA0609A1
:1003B0000E6906FA0AF646EA0906CBF820600668D6
:1003C0000C7926EA0C0604F00304BC4034430460B4
:1003D0004C68E40065D5364C266846F480462660B5
:1003E000246822F0030604F480440094314C344421
:1003F000A446D4F808489607370F0EFA07F6B44318
:100400002D4EB04201D1002624E02C4EB04201D145
:1004100001261FE02A4EB04202D102261AE040E037
:10042000284EB04201D1032614E0274EB04201D13C
:1004300004260FE0254EB04201D105260AE0244EE5
:10044000B04201D1062605E0224EB04201D1072676
:1004500000E00826BE402643CCF808681E4E3468EB
:100460004F689C43FF0300D51C4334601A4C241D85
:1004700026684F689E43BF0300D51E432660164E74
:10048000083634684F689C43FF0200D51C43346033
:10049000114E0C3634684F689C43BF0200D51C4394
:1004A0003460521C102AFFF445AFBDE8F88F0000FD
:1004B0004438024000300140000002400004024085
:1004C00000080240000C02400010024000140240EC
:1004D00000180240001C0240003C01400AB181614A
:1004E00070470904FBE7000001488068704700007E
:1004F000080000200248816802781144816070473A
:10050000080000200B4810B5016841F4007101603B
:10051000016841F480610160016841F4807101600B
:10052000032000F071F8002000F006F800F024F835
:10053000002010BD003C024070B50D4D04464FF444
:100540007A712878B1FBF0F00A490968B1FBF0F044
:1005500000F004FB48B9102C07D200222146501E9F
:1005600000F032F800206C6070BD012070BD00000A
:1005700008000020140000200B4882B0016841F4FC
:1005800080410160006800F4804000900648001F30
:10059000016841F080510160006800F080500090D7
:1005A000072002B000F030B844380240002809DBD0
:1005B00000F01F02012191404009800000F1E0207D
:1005C000C0F8001170470000F0B40E4B1B680C46D9
:1005D000C3F30223C3F10705042D00D90425191D17
:1005E000072901D2002300E0DB1E012606FA05F1EF
:1005F000491E214099409E40761E16403143F0BC72
:1006000001F0D3B90CED00E0064900F007020868DC
:100610004FF6FF03184040EA0220034A10430860E7
:10062000704700000CED00E00000FA052DE9F047EE
:100630000E46050065D0DFF81481D8F80000F7B247
:1006400000F00F00B04207D288F80070D8F8000020
:1006500000F00F00B04254D128683D4C810712D5FC
:10066000400703D5206840F4E05020602878000758
:1006700003D5206840F4604020602068A96820F01D
:10068000F000084320602878C0072DD03049686802
:100690000839012812D0022813D0032811D0096884
:1006A000890700292DDA216821F003010143216027
:1006B000FFF71AFF814641F2883A0EE00968890384
:1006C000EFE709688901ECE7FFF70EFFA0EB0901EE
:1006D000514502D90320BDE8F0872068696800F021
:1006E0000C00B0EB810FEFD1D8F80010404601F0BC
:1006F0000F01B14207D90770006800F00F00B04247
:1007000001D00120E7E72878400705D52068E9688F
:1007100020F4E050084320602878000706D52068C0
:10072000296920F4604040EAC100206000F038F8F8
:100730002168084AC1F30311515CC84006490860AA
:1007400006480068FFF7F8FE0020C4E7003C0240BE
:1007500008380240BC1B0008140000200C000020D8
:100760000448054900680968044AC1F38221515CC4
:10077000C84070471400002008380240CC1B000815
:100780000448054900680968044AC1F34231515CD4
:10079000C84070471400002008380240CC1B0008F5
:1007A000154810B5006810F00C02144813D0411021
:1007B000042A0FD0082A0ED10F4C241F2268236868
:1007C00002F03F025B0207D52068C0F38810A0FB4F
:1007D000010106E0084610BD2168C1F38811A1FBA4
:1007E00000010023FFF7ECFC2168C1F30141491C23
:1007F0004900B0FBF1F010BD083802400024F400BD
:100800002DE9F84F04006ED02078DFF83C93C00744
:10081000A9F104054AD009F104000168C1F381017E
:10082000012908D00068C0F3810002280AD1D9F854
:100830000000400206D52868800337D5606800288C
:10084000E1D033E06068B0F5803F10D0B0F5A02F64
:10085000286810D020F480302860286820F4802098
:1008600028606068A8B1FFF73FFE06460DE02868E3
:1008700040F48030F4E740F480202860F7E700BFC0
:10088000FFF732FE801B642873D828688003F7D5F1
:100890000CE0FFF729FE064605E000BFFFF724FE47
:1008A000801B6428F0D828688003F7D42078DFF80C
:1008B0009C8280074FF0000A3ED5A348001D0168C6
:1008C00011F00C0F08D00068C0F3810002280BD192
:1008D000D9F80000400207D42868800716D5E068E0
:1008E000012800D112E02BE1E068B8B10120C8F87E
:1008F0000000FFF7F9FD064605E000BFFFF7F4FD35
:10090000801B0228C0D828688007F7D5286821698D
:1009100020F0F80040EAC10028600DE0C8F800A00F
:10092000FFF7E2FD064604E0FFF7DEFD801B02282C
:100930001FD828688007F7D42078000722D5824E78
:1009400083486169703671B101210160FFF7CCFD08
:10095000074604E0FFF7C8FDC01B022809D830682D
:100960008007F7D50EE0C0F800A0FFF7BDFD0746F1
:1009700005E082E0FFF7B8FDC01B02287DD8306893
:100980008007F7D42078400768D5DFF8BCB100278E
:100990000BF13C0BDBF80000C0000BD4DBF80010BF
:1009A00041F08051CBF80010DBF80000012700F087
:1009B00080500090674E3068C00510D4306840F415
:1009C00080703060FFF790FD009005E0FFF78CFD30
:1009D0000099401A022850D83068C005F6D55A4E02
:1009E000A0686C3601280FD00528306810D020F0A0
:1009F00001003060306820F004003060A068B8B1B9
:100A0000FFF772FD00900FE0306840F00100F4E75E
:100A100040F004003060F7E7FFF766FD0099411AE7
:100A200041F28830814266D830688007F4D50EE004
:100A3000FFF75AFD009007E0FFF756FD0099411AB5
:100A400041F28830814256D830688007F4D42FB103
:100A5000DBF8001021F08051CBF80010A069C8B37A
:100A60003949091D0968C1F3810102294AD00228C8
:100A7000504607D0C8F8600000E03CE0FFF734FDC6
:100A800004463BE04746C8F86000FFF72DFD0646E8
:100A900005E000BFFFF728FD801B02282BD828683F
:100AA0008001F7D4D4E907010843A16A2A4A49081A
:100AB00002EB0141626A41EA8211084394F82C106A
:100AC00040EA0161C9F8001001203866FFF70CFD0B
:100AD000044606E036E000BFFFF706FD001B0228D3
:100AE00009D828688001F7D52CE000BFFFF7FCFC8F
:100AF000001B022802D90320BDE8F88F2868800176
:100B0000F4D41FE00128F7D0D9F80000E26900F41E
:100B10008001914214D1226A00F03F0191420FD12D
:100B200047F6C071626A0140914209D1A26A00F49D
:100B30004031914204D1E16A00F07060884201D0F6
:100B40000120D9E70020D7E70438024000004742DF
:100B5000800E4742007000400000FFFF10B5401EAD
:100B6000B0F1807F01D3012010BD4FF0E02460611F
:100B70000F21601700F019FF0020A06107202061FD
:100B8000002010BD10B590F83C20012A22D001228F
:100B900080F83C20CA688C6822F4407222434C687A
:100BA00022F4806222430C6822F4006222430C6922
:100BB00022F4805222434C6922F400522243C96934
:100BC000002322F480420A4301684A6480F83C30E2
:100BD000002010BD022010BD70B590F83C20012A05
:100BE00032D0012480F83C40022280F83D20036886
:100BF0005A689D6822F070060A6832435A60134BA7
:100C000002689A4214D0B2F1804F11D0104B9A4230
:100C10000ED0104B9A420BD00F4B9A4208D00F4B7C
:100C20009A4205D00E4B9A4202D00E4B9A4204D102
:100C3000496825F080031943916080F83D40002108
:100C400080F83C10084670BD022070BD00000140D5
:100C50000004004000080040000C00400004014077
:100C6000004001400018004010B5040003D094F883
:100C70003D0010B107E0012010BD002084F83C00C9
:100C8000204600F00DF8022084F83D00211D206868
:100C900000F0F4FB012084F83D00002010BD0000AE
:100CA00008B500680649884208D10648016841F045
:100CB00001010160006800F00100009008BD000023
:100CC000000001404438024070B5044690F83C00F2
:100CD000012817D0012584F83C50022084F83D00FB
:100CE0002068826822F0770222F47F4282600868DE
:100CF000502830D00DDC20284DD005DC98B31028CA
:100D00003BD148E0022070BD302844D0402834D187
:100D100039E0602828D0702806D0B0F5805F2CD04C
:100D2000B0F5005F29D10AE0CB68D1E90121206844
:100D300000F015FC2068816841F0770109E0CB687C
:100D4000D1E90121206800F00AFC2068816841F4A3
:100D50008041816011E0CA684968206800F0D4FCD5
:100D60005021206807E016E0CA684968206800F052
:100D7000DCFC6021206800F0FCFB84F83D50002082
:100D800084F83C0070BDCA684968206800F0BCFC6B
:100D900040212068EFE7226801461046EBE700009B
:100DA00010B586B0044614216846FFF741FA0E4993
:100DB0002068884216D10D480021026842F01002D6
:100DC0000260006800F0100005904FF40070009081
:100DD0000220CDE901010120CDE903106946044854
:100DE000FFF7A0FA06B010BD000001403038024005
:100DF0000010024070B5044690F83C000D460128F2
:100E00000DD0012684F83C60022084F83D0042B1F8
:100E1000042A18D0082A2AD00C2A4DD139E0022001
:100E200070BD206800F0AEFB2068816941F00801C8
:100E300081612068816921F00401816120688169F4
:100E40002A69114311E0206800F0CCFB2068816919
:100E500041F4006181612068816921F480618161D0
:100E6000206881692A6941EA0221816124E02068C1
:100E700000F0EEFB2068C16941F00801C161206803
:100E8000C16921F00401C1612068C1692A69114367
:100E900011E0206800F010FC2068C16941F4006195
:100EA000C1612068C16921F48061C1612068C169A4
:100EB0002A6941EA0221C16184F83D60002084F87A
:100EC0003C0070BD10B5040003D094F83D0010B193
:100ED00007E0012010BD002084F83C00204600F00F
:100EE0000CF8022084F83D00211D206800F0C6FAAD
:100EF000012084F83D00002010BD704710B5044665
:100F00000068012200F01EFB0B492068884202D0D5
:100F10000A49884203D1416C41F400414164206890
:100F2000816801F00701062903D0016841F0010141
:100F30000160002010BD00000000014000040140DD
:100F40007047000070B5026804461068D1685369A4
:100F500010F00F0F53D003F0010501F490762E43EB
:100F60005FD0C20705D0CA0503D5E26B42F001028B
:100F7000E263420705D5DA0703D0E26B42F00202D2
:100F8000E263820705D5DA0703D0E26B42F0040280
:100F9000E263020707D501F020022A4303D0E26B87
:100FA00042F00802E263E26B002A34D0800604D5E6
:100FB000880602D5204600F0E0FB20684069E16B1E
:100FC000C0F3801001F008010143204624D000F056
:100FD000C6FB2068416949061AD5416921F04001E4
:100FE0004161606BA0B11B490165606BFFF776F949
:100FF000002810D0606B016DBDE870400847830683
:101000000FD58B060DD52046BDE8704000F0B5BB6E
:101010002046FFF795FF70BDFFF792FF0020E063C9
:1010200070BD030606D50B0604D52046BDE870400A
:1010300000F082BC4006F3D54806F1D5D1682046C1
:1010400021F04001D160202184F8391000F0B2F87D
:1010500070BD00004F17000870B5040004D094F86C
:101060003900002510B106E0012070BD84F8385029
:10107000204600F023F8242084F839002068C16855
:1010800021F40051C160204600F0C2FB20680169D4
:1010900021F4904101612068416921F02A014161F8
:1010A0002068C16841F40051C160E563202084F8E4
:1010B000390084F83A00002070BD000010B586B0F9
:1010C000044614216846FFF7B3F8174920688842A0
:1010D00028D116480021026842F4003202600068FC
:1010E00000F40030059011481038026842F0010207
:1010F0000260006800F0010005900C2000900220C2
:10110000CDE90101032003900720049069460848B7
:10111000FFF708F9002211462620FFF755FA26208E
:10112000FFF744FA06B010BD0044004040380240CA
:101130000000024090F83A30202B22D1F9B1F2B1F0
:1011400090F83830012B1CD081628285C285002145
:10115000C163222280F83A2080F838100168CA68FA
:1011600042F48072CA6001684A6942F001024A6131
:101170000068C16841F02001C16000207047012073
:10118000704702207047000010B5094904460878EE
:10119000232805D18878242802D1084600F07CFC59
:1011A0002046BDE8104003220149FFF7C3BF0000FD
:1011B000020000207047FEE72DE9F04387B01421BC
:1011C0006846FFF735F834480024016841F004010F
:1011D0000160016801F004010591016841F080019E
:1011E0000160016801F080010591016841F0010191
:1011F0000160016801F001010591016841F01001F1
:101200000160016801F010010591016841F00201DF
:101210000160016801F002010591016841F00801D7
:1012200001600068DFF8748000F008004FF4C056D9
:101230000590002231464046FFF750F9DFF86090F4
:101240004FF47047002239464846FFF747F9012519
:1012500014480095CDE9010469461348FFF762F888
:101260000096CDE90154694640460394FFF75AF8C9
:101270006803CDE90004694640460294FFF752F83E
:101280000097CDE90154694648460394FFF74AF8B0
:1012900007B0BDE8F083000030380240000402408F
:1012A000000C0240000012100000024010B596B081
:1012B00000240F9410941194129413941C2108A8E4
:1012C0001494FEF7B5FF20216846FEF7B1FF2948C8
:1012D000274901602921C0E9011444F61F61C0E9D2
:1012E000031444618461FFF7BFFC08B1FEF7F4FF0B
:1012F0004FF480500F900FA91E48FFF7E5FC08B18E
:10130000FEF7EAFF1B48FFF7DDFD08B1FEF7E4FF3B
:10131000139413A917481494FFF75EFC08B1FEF765
:10132000DBFF6020089040F2DC50CDE909040B940B
:101330000C940D94002208A90E480E94FFF75AFD54
:1013400008B1FEF7C9FF00944FF40050CDE9044006
:10135000029401940394694606480794FFF712FC2F
:1013600008B1FEF7B9FF0348FFF71AFD16B010BD2C
:1013700000000140180000200E4810B50C49016023
:101380004FF416514160002181600422C160C0E920
:1013900004128161C161FFF75FFE08B1FEF79CFF97
:1013A000BDE81040032204490248FFF7C3BE000015
:1013B000004400405800002002000020FEE7FEE745
:1013C00070477047FFF796B830B593B03021684644
:1013D000FEF72EFF14210CA8FEF72AFF1E48002559
:1013E000016841F080510160006800F08050119068
:1013F0001A48016841F4804101600068022400F449
:101400008040119001200090000401908001CDE9FE
:101410000640082008904FF4A870CDE90904072081
:101420000B906846FFF7ECF908B172B6FEE70CA91D
:101430000F2081E831004FF4A0500F904FF4C050BE
:10144000109005210CA8FFF7F1F8002801D072B622
:10145000FEE713B030BD000040380240007000408D
:101460000548016841F47001016003494FF00060D4
:10147000803908607047000088ED00E0F0B5026830
:10148000254C264D264E274F274B4FF0804CA0422F
:1014900009D0604507D0A84205D0B04203D0B84279
:1014A00001D0984204D122F0700E4A6842EA0E023E
:1014B000A0421BD0604519D0A84217D0B04215D029
:1014C000B84213D0984211D0184DA8420ED0184DF2
:1014D000A8420BD0174DA84208D0174DA84205D0FE
:1014E000164DA84202D0164DA84203D122F44075F1
:1014F000CA682A434D6922F080022A4302608A6842
:10150000C2620A688262A04201D0984201D1096990
:10151000016301214161F0BD000001400004004071
:1015200000080040000C0040000401400040014061
:10153000004401400048014000180040001C0040E9
:101540000020004010B501F01F030121046A9940FA
:101550008C430462016A9A401143016210BD10B5C8
:10156000846842EA032224F47F440A4322438260CF
:1015700010BD826822F070020A4342F007018160C8
:1015800070470000F0B5026A22F001020262036AAD
:1015900042688469124E24F073050C682C4323F0D2
:1015A00002058B682B430D4DA84201D0B04205D1F6
:1015B00023F00807CB683B4323F00403A84201D083
:1015C000B04205D14D6922F4407215438A692A431D
:1015D00042608461496841630362F0BD00000140DC
:1015E00000040140F0B5026A22F010020262026AB1
:1015F000436884690D6824F4E64444EA05248D6850
:1016000022F0200242EA05120F4D104EA84201D0EE
:10161000B04206D1CF6822F0800242EA071222F0DF
:101620004002A84201D0B04207D14D6923F4406383
:1016300043EA85038D6943EA850343608461496811
:1016400081630262F0BD000000000140000401401F
:10165000F0B5026A22F480720262026A4368C469C9
:1016600022F4007224F073050C68124E2C438D682E
:1016700042EA05220E4DA84201D0B04206D1CF6801
:1016800022F4006242EA072222F48062A84201D0DA
:10169000B04207D14D6923F4405343EA05138D69E5
:1016A00043EA05134360C4614968C1630262F0BD47
:1016B000000001400004014030B5026A22F480526B
:1016C0000262046A4268C3690D6823F4E64343EA90
:1016D00005238D6824F4005444EA0534084DA842DB
:1016E00002D0084DA84204D14D6922F4804242EA5A
:1016F00085124260C36149680164046230BD000024
:10170000000001400004014010B5036A046A24F09F
:1017100001040462846924F0F00444EA021423F012
:101720000A020A438461026210BD10B5036A23F005
:10173000100303628369046A23F4704343EA0232AC
:1017400024F0A00343EA01118261016210BD10B5CB
:10175000806B0021C185C184FFF7F2FB10BD0168D9
:10176000CA6822F49072CA6001684A6922F00102D4
:101770004A61202180F83A10704710B590F83A106D
:10178000222901D0022010BD8168B1F5805F11D0FF
:101790000169002901681FD0496801F07F03816A4F
:1017A0004A1C82620B70C18D491E0904090CC18557
:1017B00018D02BE00269816A002A0268526805D0BD
:1017C000D2B20A80816A491C8162ECE7C2F3080246
:1017D0000A80816A891CF7E74A68816A4B1C836228
:1017E0000A70E0E70168CA6822F02002CA60016856
:1017F000CA6822F48072CA6001684A6922F0010254
:101800004A61202180F83A10FFF7BEFC002010BD8D
:101810002DE9F041044600680169E26821F4405175
:10182000114301612169A068E269084361691143BC
:1018300008432168CA6849F20C639A430243CA60AC
:1018400020684169A26921F4407111434161E06956
:10185000192764253226B0F5004F354A35492068EE
:101860004FF0000806D0884201D0904236D1FEF7F2
:1018700087FF35E0884201D0904202D1FEF780FF19
:1018800001E0FEF76DFF61684A18A0FB070148EB15
:101890000803FEF795FC0146B0FBF5F00201B1FB31
:1018A000F5F06FF01803584301EB800006EBC00021
:1018B000B0FBF5F000F0F80002EB4002B1FBF5F0F0
:1018C000584301EB800006EBC000B0FBF5F000F0E0
:1018D0000700216810448860BDE8F081FEF740FFF2
:1018E00061688B0F8A00A0FB0701FEF769FC0146C7
:1018F000B0FBF5F06FF01802504301EB800006EBEF
:101900000010B0FBF5F000F0F002B1FBF5F002EBD7
:101910000012B1FBF5F06FF01803584301EB8000A3
:1019200006EB0010B0FBF5F000F00F00D1E700006F
:10193000001401400010014090F83910212901D015
:10194000022070478168B1F5805F016A0BD04A1CA4
:101950000262026809785160C18C491E0904090CB1
:10196000C1840ED017E009880268C1F308015160F4
:1019700001690029016A02D0491C0162ECE7891C57
:10198000FBE70168CA6822F08002CA600068C1688B
:1019900041F04001C1600020704700000148FFF79E
:1019A000D1BA000058000020FEE70907090E002800
:1019B00004DB00F1E02080F80014704700F00F0015
:1019C00000F1E02080F8141D704702E008C8121FE3
:1019D00008C1002AFAD170477047002001E001C118
:1019E000121F002AFBD17047FEF78CFDFFF7ECFCBD
:1019F000FFF7E2FBFFF75AFCFFF7BEFC00210B48A4
:101A0000FFF77CFA4FF48055094CAE004FF4FA779B
:101A1000002229462046FEF761FD0022314620467D
:101A2000FEF75CFD3846FEF76BFCF1E7180000207E
:101A3000000C024010B5064C012211032046FEF7AF
:101A40004DFD0022E1142046BDE81040FEF746BDE2
:101A50000004024010B5064C0122D1022046FEF7D8
:101A60003DFD0022A1142046BDE81040FEF736BD22
:101A70000004024010B5074C00224FF4805120466C
:101A8000FEF72CFD0022E1142046BDE81040FEF7D1
:101A900025BD0000000402402DE9F04780460146C4
:101AA000002601253DA0FEF7D5FB3D4F4FF4005920
:101AB0004FF4004A60B9FFF7CDFF0122494638468E
:101AC000FEF70CFD002251463846FEF707FD0025C3
:101AD000414634A0FEF7BEFB334C60B9B4F90000B8
:101AE000B0F5167F01DC3230208001221103384628
:101AF000FEF7F4FC002541462CA0FEF7ABFB60B9D5
:101B0000B4F9000010F5167F01DB32382080012285
:101B100091033846FEF7E2FC0025414624A0FEF77B
:101B200099FB60B9FFF786FF002249463846FEF769
:101B3000D5FC012251463846FEF7D0FC002541462F
:101B40001CA0FEF787FB60B9FFF794FF002249460F
:101B50003846FEF7C3FC002251463846FEF7BEFC6D
:101B60000025208800F2DC5081B240F6340081422A
:101B700003D84FF46170814200D201460E484163A0
:101B8000002402E008F80640761C4046FEF75BFBA6
:101B9000B042F7D82846BDE8F08700002332240081
:101BA000000C0240233424000000002023362400CF
:101BB00023382400233524000000014000000000E9
:101BC00000000000010203040607080900000000ED
:101BD00001020304F41B00080000002018000000AC
:101BE000CA1900080C1C000818000020800400001E
:101BF000DA190008000000000000000001000000E9
:0C1C000010000000000000000024F400B0
:040000050800018965
:00000001FF
