:020000040800F2
:10000000900400209D0100080B1300080D1100084A
:1000100009130008A9020008F518000800000000F4
:100020000000000000000000000000000F130008A6
:10003000AB020008000000000D13000811130008B7
:10004000B7010008B7010008B7010008B7010008B0
:10005000B7010008B7010008B7010008B7010008A0
:10006000B7010008B7010008B7010008B701000890
:10007000B7010008B7010008B7010008B701000880
:10008000B7010008B7010008B7010008B701000870
:10009000B7010008B7010008B7010008B701000860
:1000A000B7010008B7010008B7010008B701000850
:1000B000B7010008B7010008B7010008B701000840
:1000C000B7010008B7010008B7010008B701000830
:1000D000B7010008B7010008E9180008B7010008D7
:1000E000B7010008B7010008B7010008B701000810
:1000F000B7010008B7010008B7010008B701000800
:10010000B7010008B7010008B7010008B7010008EF
:10011000B7010008B7010008B7010008B7010008DF
:10012000B7010008B7010008B7010008B7010008CF
:10013000B7010008B7010008B7010008B7010008BF
:10014000B7010008B7010008B7010008B7010008AF
:10015000B7010008B7010008B7010008B70100089F
:10016000B7010008B7010008B7010008B70100088F
:10017000B7010008B7010008B7010008000000003F
:10018000B7010008B7010008DFF80CD000F07AF8DA
:1001900000480047351900089004002006488047B1
:1001A00006480047FEE7FEE7FEE7FEE7FEE7FEE75C
:1001B000FEE7FEE7FEE7FEE7AD1300088901000851
:1001C0002DE9F05F0546002092469B46884606468C
:1001D000814640241BE0284641464746224600F01F
:1001E00041F853465A46C01A914110D31146184659
:1001F000224600F028F82D1A67EB01084F462246E8
:100200000120002100F01FF817EB00094E41201ECD
:10021000A4F10104DFDC484631462A464346BDE8E6
:10022000F09FD2B201E000F8012B491EFBD27047CB
:100230000022F6E710B513460A4604461946FFF7B2
:10024000F0FF204610BD202A04DB203A00FA02F11C
:10025000002070479140C2F1200320FA03F31943B4
:1002600090407047202A04DB203A21FA02F0002156
:10027000704721FA02F3D040C2F1200291400843B6
:1002800019467047064C074D06E0E06840F0010350
:1002900094E8070098471034AC42F6D3FFF778FF94
:1002A000C0190008E0190008FEE7704772B6FEE7C3
:1002B00090F83510022903D0802141650120704754
:1002C000052180F835100068016821F00101016006
:1002D0000020704770B5044600F0F0F80546601C39
:1002E00002D004480078044400F0E8F8401BA04223
:1002F000FAD370BD000000202DE9F84F00224FF026
:10030000010803254FF00F0E0B6808FA02F4234092
:10031000A3426ED14E68012E05D0022E03D0112EBD
:1003200001D0122E12D186684FEA420C05FA0CF762
:10033000BE43CF6807FA0CF7374387604668A64389
:100340000C79C4F30014944034434460C6685700E9
:1003500005FA07FC8C6826EA0C06BC403443C460EE
:100360004C68022C01D0122C13D1D40800EB840469
:10037000A346D4F8209054074FEAD46A0EFA0AF63E
:1003800029EA06090E6906FA0AF646EA0906CBF8D2
:10039000206006680C7926EA0C0604F00304BC40D1
:1003A000344304604C68E40065D5364C266846F456
:1003B00080462660246822F0030604F480440094FA
:1003C000314C3444A446D4F808489607370F0EFA47
:1003D00007F6B4432D4EB04201D1002624E02C4E46
:1003E000B04201D101261FE02A4EB04202D10226BE
:1003F0001AE040E0284EB04201D1032614E0274E17
:10040000B04201D104260FE0254EB04201D10526AD
:100410000AE0244EB04201D1062605E0224EB04249
:1004200001D1072600E00826BE402643CCF8086824
:100430001E4E34684F689C43FF0300D51C43346054
:100440001A4C241D26684F689E43BF0300D51E43E7
:100450002660164E083634684F689C43FF0200D56C
:100460001C433460114E0C3634684F689C43BF0205
:1004700000D51C433460521C102AFFF445AFBDE880
:10048000F88F000044380240003001400000024074
:100490000004024000080240000C0240001002402C
:1004A0000014024000180240001C0240003C0140C1
:1004B0000AB1816170470904FBE7000001488068C8
:1004C0007047000000000020024881680278114453
:1004D00081607047000000200B4810B5016841F4AE
:1004E00000710160016841F480610160016841F4BC
:1004F00080710160032000F071F8002000F006F820
:1005000000F024F8002010BD003C024070B50D4DF5
:1005100004464FF47A712878B1FBF0F00A49096873
:10052000B1FBF0F000F004FB48B9102C07D2002218
:100530002146501E00F032F800206C6070BD012092
:1005400070BD0000000000200C0000200B4882B0AD
:10055000016841F480410160006800F4804000902F
:100560000648001F016841F080510160006800F0FA
:1005700080500090072002B000F030B844380240AC
:10058000002809DB00F01F02012191404009800092
:1005900000F1E020C0F8001170470000F0B40E4BED
:1005A0001B680C46C3F30223C3F10705042D00D9D1
:1005B0000425191D072901D2002300E0DB1E0126B6
:1005C00006FA05F1491E214099409E40761E1640CC
:1005D0003143F0BC01F08FB90CED00E0064900F0AA
:1005E000070208684FF6FF03184040EA0220034A5A
:1005F00010430860704700000CED00E00000FA05B1
:100600002DE9F0470E46050065D0DFF81481D8F8D3
:100610000000F7B200F00F00B04207D288F8007077
:10062000D8F8000000F00F00B04254D128683D4CCB
:10063000810712D5400703D5206840F4E0502060C0
:100640002878000703D5206840F4604020602068C7
:10065000A96820F0F000084320602878C0072DD05A
:10066000304968680839012812D0022813D00328BD
:1006700011D00968890700292DDA216821F00301CA
:1006800001432160FFF71AFF814641F2883A0EE0EC
:1006900009688903EFE709688901ECE7FFF70EFFB6
:1006A000A0EB0901514502D90320BDE8F08720687D
:1006B000696800F00C00B0EB810FEFD1D8F80010A2
:1006C000404601F00F01B14207D90770006800F001
:1006D0000F00B04201D00120E7E72878400705D598
:1006E0002068E96820F4E05008432060287800077B
:1006F00006D52068296920F4604040EAC1002060E6
:1007000000F038F82168084AC1F30311515CC84071
:100710000649086006480068FFF7F8FE0020C4E7B5
:10072000003C024008380240A81900080C000020D4
:10073000040000200448054900680968044AC1F320
:100740008221515CC84070470C00002008380240EC
:10075000B81900080448054900680968044AC1F34B
:100760004231515CC84070470C00002008380240FC
:10077000B8190008154810B5006810F00C021448AC
:1007800013D04110042A0FD0082A0ED10F4C241F79
:100790002268236802F03F025B0207D52068C0F39D
:1007A0008810A0FB010106E0084610BD2168C1F3D6
:1007B0008811A1FB00010023FFF702FD2168C1F3AE
:1007C0000141491C4900B0FBF1F010BD083802405E
:1007D0000024F4002DE9F84F04006ED02078DFF8F3
:1007E0003C93C007A9F104054AD009F1040001684F
:1007F000C1F38101012908D00068C0F381000228FB
:100800000AD1D9F80000400206D52868800337D500
:1008100060680028E1D033E06068B0F5803F10D018
:10082000B0F5A02F286810D020F480302860286808
:1008300020F4802028606068A8B1FFF73FFE0646DC
:100840000DE0286840F48030F4E740F48020286010
:10085000F7E700BFFFF732FE801B642873D82868D3
:100860008003F7D50CE0FFF729FE064605E000BF40
:10087000FFF724FE801B6428F0D828688003F7D493
:100880002078DFF89C8280074FF0000A3ED5A3480D
:10089000001D016811F00C0F08D00068C0F3810042
:1008A00002280BD1D9F80000400207D4286880073D
:1008B00016D5E068012800D112E02BE1E068B8B15C
:1008C0000120C8F80000FFF7F9FD064605E000BF6B
:1008D000FFF7F4FD801B0228C0D828688007F7D5F1
:1008E0002868216920F0F80040EAC10028600DE086
:1008F000C8F800A0FFF7E2FD064604E0FFF7DEFDC2
:10090000801B02281FD828688007F7D420780007AA
:1009100022D5824E83486169703671B10121016030
:10092000FFF7CCFD074604E0FFF7C8FDC01B022817
:1009300009D830688007F7D50EE0C0F800A0FFF7AF
:10094000BDFD074605E082E0FFF7B8FDC01B0228A9
:100950007DD830688007F7D42078400768D5DFF865
:10096000BCB100270BF13C0BDBF80000C0000BD43E
:10097000DBF8001041F08051CBF80010DBF80000EC
:10098000012700F080500090674E3068C00510D4F9
:10099000306840F480703060FFF790FD009005E013
:1009A000FFF78CFD0099401A022850D83068C00526
:1009B000F6D55A4EA0686C3601280FD0052830684D
:1009C00010D020F001003060306820F0040030606A
:1009D000A068B8B1FFF772FD00900FE0306840F0FA
:1009E0000100F4E740F004003060F7E7FFF766FD30
:1009F0000099411A41F28830814266D830688007F8
:100A0000F4D50EE0FFF75AFD009007E0FFF756FD22
:100A10000099411A41F28830814256D830688007E7
:100A2000F4D42FB1DBF8001021F08051CBF8001086
:100A3000A069C8B33949091D0968C1F381010229B8
:100A40004AD00228504607D0C8F8600000E03CE0D9
:100A5000FFF734FD04463BE04746C8F86000FFF767
:100A60002DFD064605E000BFFFF728FD801B02288C
:100A70002BD828688001F7D4D4E907010843A16A7C
:100A80002A4A490802EB0141626A41EA821108439D
:100A900094F82C1040EA0161C9F800100120386672
:100AA000FFF70CFD044606E036E000BFFFF706FD49
:100AB000001B022809D828688001F7D52CE000BF68
:100AC000FFF7FCFC001B022802D90320BDE8F88FC9
:100AD00028688001F4D41FE00128F7D0D9F800007D
:100AE000E26900F48001914214D1226A00F03F01D2
:100AF00091420FD147F6C071626A0140914209D11B
:100B0000A26A00F44031914204D1E16A00F07060C1
:100B1000884201D00120D9E70020D7E704380240FD
:100B200000004742800E4742007000400000FFFF77
:100B300010B5401EB0F1807F01D3012010BD4FF0F1
:100B4000E02460610F21601700F0D5FE0020A06155
:100B500007202061002010BD10B590F83C20012A2C
:100B600022D0012280F83C20CA688C6822F44072AE
:100B700022434C6822F4806222430C6822F4006213
:100B800022430C6922F4805222434C6922F4005221
:100B90002243C969002322F480420A4301684A645F
:100BA00080F83C30002010BD022010BD70B590F8D8
:100BB0003C20012A32D0012480F83C40022280F8F7
:100BC0003D2003685A689D6822F070060A68324327
:100BD0005A60134B02689A4214D0B2F1804F11D080
:100BE000104B9A420ED0104B9A420BD00F4B9A42A8
:100BF00008D00F4B9A4205D00E4B9A4202D00E4BB2
:100C00009A4204D1496825F080031943916080F825
:100C10003D40002180F83C10084670BD022070BDA8
:100C2000000001400004004000080040000C0040AB
:100C300000040140004001400018004010B50400CD
:100C400003D094F83D0010B107E0012010BD002052
:100C500084F83C00204600F00DF8022084F83D00A6
:100C6000211D206800F0B0FB012084F83D00002029
:100C700010BD000008B500680649884208D1064842
:100C8000016841F001010160006800F0010000907E
:100C900008BD0000000001404438024070B5044621
:100CA00090F83C00012817D0012584F83C50022020
:100CB00084F83D002068826822F0770222F47F42A7
:100CC00082600868502830D00DDC20284DD005DC2B
:100CD00098B310283BD148E0022070BD302844D0A2
:100CE000402834D139E0602828D0702806D0B0F5EB
:100CF000805F2CD0B0F5005F29D10AE0CB68D1E944
:100D00000121206800F0D1FB2068816841F0770163
:100D100009E0CB68D1E90121206800F0C6FB20681A
:100D2000816841F48041816011E0CA6849682068A7
:100D300000F090FC5021206807E016E0CA6849687E
:100D4000206800F098FC6021206800F0B8FB84F86F
:100D50003D50002084F83C0070BDCA684968206896
:100D600000F078FC40212068EFE722680146104639
:100D7000EBE7000010B586B0044614216846FFF783
:100D800057FA0E492068884216D10D4800210268A2
:100D900042F010020260006800F0100005904FF46D
:100DA000007000900220CDE901010120CDE903107F
:100DB00069460448FFF7A0FA06B010BD00000140E4
:100DC000303802400010024070B5044690F83C00F4
:100DD0000D4601280DD0012684F83C60022084F8DD
:100DE0003D0042B1042A18D0082A2AD00C2A4DD13D
:100DF00039E0022070BD206800F06AFB206881693C
:100E000041F0080181612068816921F0040181615C
:100E1000206881692A69114311E0206800F088FB8D
:100E20002068816941F4006181612068816921F451
:100E300080618161206881692A6941EA02218161BA
:100E400024E0206800F0AAFB2068C16941F0080195
:100E5000C1612068C16921F00401C1612068C169D4
:100E60002A69114311E0206800F0CCFB2068C169B9
:100E700041F40061C1612068C16921F48061C161F0
:100E80002068C1692A6941EA0221C16184F83D6094
:100E9000002084F83C0070BD10B5040003D094F825
:100EA0003D0010B107E0012010BD002084F83C0097
:100EB000204600F00CF8022084F83D00211D206837
:100EC00000F082FA012084F83D00002010BD704738
:100ED00010B504460068012200F0DAFA0B492068D8
:100EE000884202D00A49884203D1416C41F4004152
:100EF00041642068816801F00701062903D0016878
:100F000041F001010160002010BD0000000001401F
:100F1000000401407047000070B502680446106884
:100F2000D168536910F00F0F53D003F0010501F49D
:100F300090762E435FD0C20705D0CA0503D5E26B79
:100F400042F00102E263420705D5DA0703D0E26B03
:100F500042F00202E263820705D5DA0703D0E26BB2
:100F600042F00402E263020707D501F020022A439F
:100F700003D0E26B42F00802E263E26B002A34D055
:100F8000800604D5880602D5204600F09CFB206828
:100F90004069E16BC0F3801001F008010143204675
:100FA00024D000F082FB2068416949061AD54169C6
:100FB00021F040014161606BA0B11B490165606B8C
:100FC000FFF776F9002810D0606B016DBDE8704026
:100FD000084783060FD58B060DD52046BDE8704027
:100FE00000F071BB2046FFF795FF70BDFFF792FF41
:100FF0000020E06370BD030606D50B0604D520462D
:10100000BDE8704000F03EBC4006F3D54806F1D57F
:10101000D168204621F04001D160202184F83910A8
:1010200000F073F870BD00009B16000870B5040056
:1010300004D094F83900002510B106E0012070BDFD
:1010400084F83850204600F023F8242084F8390032
:101050002068C16821F40051C160204600F07EFB89
:101060002068016921F4904101612068416921F003
:101070002A0141612068C16841F40051C160E56303
:10108000202084F8390084F83A00002070BD000068
:1010900010B586B0044614216846FFF7C9F8174911
:1010A0002068884228D116480021026842F40032A4
:1010B0000260006800F400300590114810380268A2
:1010C00042F001020260006800F0010005900C206F
:1010D00000900220CDE90101032003900720049035
:1010E00069460848FFF708F9002211462620FFF755
:1010F00055FA2620FFF744FA06B010BD0044004020
:10110000403802400000024070477047FEE7000090
:101110002DE9F04387B014216846FFF789F8344879
:101120000024016841F004010160016801F004013C
:101130000591016841F080010160016801F08001C2
:101140000591016841F001010160016801F00101B0
:101150000591016841F010010160016801F0100182
:101160000591016841F002010160016801F002018E
:101170000591016841F0080101600068DFF87480A2
:1011800000F008004FF4C05605900022314640465A
:10119000FFF78EF9DFF860904FF470470022394670
:1011A0004846FFF785F9012514480095CDE901046B
:1011B00069461348FFF7A0F80096CDE90154694647
:1011C00040460394FFF798F86803CDE900046946A8
:1011D00040460294FFF790F80097CDE90154694624
:1011E00048460394FFF788F807B0BDE8F083000095
:1011F0003038024000040240000C0240000012108F
:101200000000024010B596B000240F941094119481
:10121000129413941C2108A81494FFF709F82021B4
:101220006846FFF705F82948274901602921C0E9E8
:10123000011444F61F61C0E9031444618461FFF79F
:10124000FDFC08B1FFF732F84FF480500F900FA962
:101250001E48FFF723FD08B1FFF728F81B48FFF7EA
:101260001BFE08B1FFF722F8139413A91748149432
:10127000FFF79CFC08B1FFF719F8602008904FF4C5
:101280006170CDE909040B940C940D94002208A917
:101290000E480E94FFF798FD08B1FFF707F8009489
:1012A0004FF40050CDE90440029401940394694640
:1012B00006480794FFF750FC08B1FEF7F7FF034814
:1012C000FFF758FD16B010BD0000014010000020CF
:1012D0000C4810B50A4901604FF4E131416000212A
:1012E00081600422C160C0E904128161C161FFF71D
:1012F0009DFE002803D0BDE81040FEF7D7BF10BD0B
:101300000044004050000020FEE7FEE770477047B1
:10131000FFF7DAB830B593B030216846FEF788FFA2
:1013200014210CA8FEF784FF1E480025016841F037
:1013300080510160006800F0805011901A480168E7
:1013400041F4804101600068022400F48040119063
:1013500001200090000401908001CDE906400820A2
:1013600008904FF4A870CDE9090407200B90684657
:10137000FFF730FA08B172B6FEE70CA90F2081E83A
:1013800031004FF4A0500F904FF4C0501090052141
:101390000CA8FFF735F9002801D072B6FEE713B0AC
:1013A00030BD000040380240007000400548016830
:1013B00041F47001016003494FF00060803908601A
:1013C0007047000088ED00E0F0B50268254C264D1E
:1013D000264E274F274B4FF0804CA04209D0604546
:1013E00007D0A84205D0B04203D0B84201D09842FD
:1013F00004D122F0700E4A6842EA0E02A0421BD0CD
:10140000604519D0A84217D0B04215D0B84213D0C9
:10141000984211D0184DA8420ED0184DA8420BD0BA
:10142000174DA84208D0174DA84205D0164DA84226
:1014300002D0164DA84203D122F44075CA682A434F
:101440004D6922F080022A4302608A68C2620A68FB
:101450008262A04201D0984201D109690163012151
:101460004161F0BD00000140000400400008004060
:10147000000C0040000401400040014000440140D5
:101480000048014000180040001C004000200040BF
:1014900010B501F01F030121046A99408C430462D6
:1014A000016A9A401143016210BD10B5846842EA96
:1014B000032224F47F440A432243826010BD8268E1
:1014C00022F070020A4342F0070181607047000079
:1014D000F0B5026A22F001020262036A426884697E
:1014E000124E24F073050C682C4323F002058B6820
:1014F0002B430D4DA84201D0B04205D123F008077F
:10150000CB683B4323F00403A84201D0B04205D18D
:101510004D6922F4407215438A692A43426084610E
:10152000496841630362F0BD0000014000040140CE
:10153000F0B5026A22F010020262026A436884690E
:101540000D6824F4E64444EA05248D6822F0200264
:1015500042EA05120F4D104EA84201D0B04206D10A
:10156000CF6822F0800242EA071222F04002A8422D
:1015700001D0B04207D14D6923F4406343EA8503AB
:101580008D6943EA8503436084614968816302622F
:10159000F0BD00000000014000040140F0B5026A07
:1015A00022F480720262026A4368C46922F4007203
:1015B00024F073050C68124E2C438D6842EA052214
:1015C0000E4DA84201D0B04206D1CF6822F400628D
:1015D00042EA072222F48062A84201D0B04207D139
:1015E0004D6923F4405343EA05138D6943EA05131B
:1015F0004360C4614968C1630262F0BD00000140FC
:101600000004014030B5026A22F480520262046A8A
:101610004268C3690D6823F4E64343EA05238D68F5
:1016200024F4005444EA0534084DA84202D0084D81
:10163000A84204D14D6922F4804242EA85124260F8
:10164000C36149680164046230BD000000000140CC
:101650000004014010B5036A046A24F00104046226
:10166000846924F0F00444EA021423F00A020A43D5
:101670008461026210BD10B5036A23F01003036297
:101680008369046A23F4704343EA023224F0A0031E
:1016900043EA01118261016210BD10B5806B002127
:1016A000C185C184FFF736FC10BD0168CA6822F409
:1016B0009072CA6001684A6922F001024A612021E1
:1016C00080F83A10704710B590F83A10222901D0EE
:1016D000022010BD8168B1F5805F11D00169002939
:1016E00001681FD0496801F07F03816A4A1C826249
:1016F0000B70C18D491E0904090CC18518D02BE05F
:101700000269816A002A0268526805D0D2B20A8052
:10171000816A491C8162ECE7C2F308020A80816A8F
:10172000891CF7E74A68816A4B1C83620A70E0E70C
:101730000168CA6822F02002CA600168CA6822F4FF
:101740008072CA6001684A6922F001024A61202160
:1017500080F83A10FFF7D8FC002010BD2DE9F041C9
:10176000044600680169E26821F4405111430161B7
:101770002169A068E269084361691143084321684F
:10178000CA6849F20C639A430243CA6020684169FF
:10179000A26921F4407111434161E0691927642570
:1017A0003226B0F5004F354A354920684FF0000821
:1017B00006D0884201D0904236D1FEF7CBFF35E00B
:1017C000884201D0904202D1FEF7C4FF01E0FEF74B
:1017D000B1FF61684A18A0FB070148EB0803FEF758
:1017E000EFFC0146B0FBF5F00201B1FBF5F06FF044
:1017F0001803584301EB800006EBC000B0FBF5F086
:1018000000F0F80002EB4002B1FBF5F0584301EBA9
:10181000800006EBC000B0FBF5F000F00700216887
:1018200010448860BDE8F081FEF784FF61688B0F8B
:101830008A00A0FB0701FEF7C3FC0146B0FBF5F0F0
:101840006FF01802504301EB800006EB0010B0FB74
:10185000F5F000F0F002B1FBF5F002EB0012B1FB85
:10186000F5F06FF01803584301EB800006EB001011
:10187000B0FBF5F000F00F00D1E7000000140140CC
:101880000010014090F83910212901D00220704742
:101890008168B1F5805F016A0BD04A1C0262026860
:1018A00009785160C18C491E0904090CC1840ED00D
:1018B00017E009880268C1F3080151600169002935
:1018C000016A02D0491C0162ECE7891CFBE7016850
:1018D000CA6822F08002CA600068C16841F0400115
:1018E000C1600020704700000148FFF715BB0000F1
:1018F00050000020FEE70907090E002804DB00F174
:10190000E02080F80014704700F00F0000F1E020A4
:1019100080F8141D704702E008C8121F08C1002A91
:10192000FAD170477047002001E001C1121F002A60
:10193000FBD170474FF46174FEF7CEFDFFF7EAFC70
:10194000FFF7E6FBFFF75EFCFFF7C2FC0021134840
:10195000FFF7BEFA124EDFF84CA04FF480554FF45B
:101960007A7740F63408A146012229463046FEF730
:101970009FFD3846FEF7AEFC002229463046FEF7B2
:1019800097FD3846FEF7A6FC444504DA323424B20B
:10199000CAF83440E8E74C46E6E7000010000020B3
:1019A000000C0240000001400000000000000000A8
:1019B00001020304060708090000000001020304F5
:1019C000E0190008000000201000000016190008AF
:1019D000F0190008100000208004000026190008FB
:1019E0000100000010000000000000000024F400CE
:040000050800018965
:00000001FF
